:100000000C9462000C948A000C948A000C948A0070
:100010000C948A000C948A000C948A000C948A0038
:100020000C948A000C948A000C948A000C948A0028
:100030000C948A000C948A000C948A000C948A0018
:100040000C945E030C948A000C948A000C948A0031
:100050000C948A000C948A000C948A000C948A00F8
:100060000C948A000C948A000000000024002700F1
:100070002A0000000000250028002B0000000000DE
:1000800023002600290004040404040404040202DA
:100090000202020203030303030301020408102007
:1000A0004080010204081020010204081020000012
:1000B0000008000201000003040700000000000027
:1000C0000000330511241FBECFEFD8E0DEBFCDBF47
:1000D00011E0A0E0B1E0E6EEFBE002C005900D9279
:1000E000A030B107D9F721E0A0E0B1E001C01D9236
:1000F000A732B207E1F710E0C2E6D0E004C02197D2
:10010000FE010E94D005C136D107C9F70E94A8039D
:100110000C94F1050C940000833081F028F48130B8
:1001200099F08230A9F008958730A9F08830C9F09D
:100130008430B1F4809180008F7D03C08091800075
:100140008F7780938000089584B58F7784BD08955C
:1001500084B58F7DFBCF8091B0008F778093B00006
:1001600008958091B0008F7DF9CFCF93DF93282F32
:1001700030E0F901E255FF4F8491F901E656FF4F57
:10018000D491F901EA57FF4FC491CC23A1F081111A
:100190000E948C00EC2FF0E0EE0FFF1FE458FF4FA1
:1001A000A591B491EC91ED2381E090E009F480E019
:1001B000DF91CF91089580E090E0FACF1F93CF9325
:1001C000DF93282F30E0F901E255FF4F8491F901C8
:1001D000E656FF4FD491F901EA57FF4FC491CC2363
:1001E000A9F0162F81110E948C00EC2FF0E0EE0F89
:1001F000FF1FEE58FF4FA591B4918FB7F894EC9183
:10020000111108C0D095DE23DC938FBFDF91CF9111
:100210001F910895DE2BF8CFCF93DF93EC018091EF
:10022000150190911601029749F4C130D10509F4E6
:100230003BC06CF560E0209709F437C08091150150
:1002400090911601049749F4C130D10509F45CC0BE
:100250000CF037C0209709F442C0809115019091AD
:100260001601059709F0E5C0CA30D10508F0E1C0D4
:10027000FE01E35CFE4F0C94D0059C01A801B9017E
:10028000CF01EA01EC01F301FF0110021702C230B5
:10029000D105A9F060E0C330D10581F68091190144
:1002A0000E94DE0060E006C061E0809119010E94BA
:1002B000DE0061E080911B010E94DE00BFCF61E0A3
:1002C000EDCFC230D10539F1C330D10509F0C5CF2A
:1002D00061E0809119010E94DE0060E022C061E0CF
:1002E000809119010E94DE0060E080911B010E9454
:1002F000DE0061E080911D010E94DE0060E08091DF
:100300001F010E94DE00A9CF60E0809119010E94C8
:10031000DE0061E0EACF60E0809119010E94DE001A
:1003200061E080911B010E94DE0060E080911D0170
:100330000E94DE0061E0E3CF60E0809119010E943D
:10034000DE0061E080911B010E94DE0061E00BC0D5
:1003500060E0809119010E94DE0061E080911B0144
:100360000E94DE0060E080911D010E94DE0060E0DE
:1003700010C060E0809119010E94DE0061E0809170
:100380001B010E94DE0060E080911D010E94DE00E2
:1003900061E080911F010E94DE0061E015C060E015
:1003A000809119010E94DE0061E080911B010E9492
:1003B000DE0060E080911D010E94DE0061E080911E
:1003C0001F010E94DE0060E080912101DF91CF914A
:1003D0000C94DE0061E0E4CF61E0809119010E949D
:1003E000DE0060E0E2CF61E0809119010E94DE0052
:1003F00060E080911B010E94DE0061E0DBCF61E0E4
:10040000809119010E94DE0060E080911B010E9432
:10041000DE0061E080911D010E94DE0060E0CFCF30
:1004200061E0809119010E94DE0060E08BCF60E006
:10043000F8CFDF91CF910895CF93DF9390E0FC0147
:10044000E656FF4F24918A579F4FFC0184918823E1
:10045000D1F090E0880F991FFC01E859FF4FA5915A
:10046000B491FC01EE58FF4FC591D491623071F404
:100470009FB7F8943C91822F809583238C93E881D9
:100480002E2B28839FBFDF91CF9108958FB7F894CB
:10049000EC912E2B2C938FBFF6CF8E5080648093DF
:1004A0007C0080917A00806480937A0080917A0049
:1004B00086FDFCCF809178009091790008953FB738
:1004C000F8948091050190910601A0910701B091E7
:1004D000080126B5A89B05C02F3F19F00196A11D64
:1004E000B11D3FBFBA2FA92F982F8827BC01CD017E
:1004F000620F711D811D911D42E0660F771F881FDD
:10050000991F4A95D1F708958F929F92AF92BF920B
:10051000CF92DF92EF92FF920E945F024B015C014B
:1005200084E1C82ED12CE12CF12C0E945F026819C5
:1005300079098A099B09683E734081059105A8F3F2
:1005400021E0C21AD108E108F10888EE880E83E0A4
:10055000981EA11CB11CC114D104E104F10429F7B7
:10056000FF90EF90DF90CF90BF90AF909F908F90D3
:1005700008954F925F926F927F928F929F92AF9267
:10058000BF92EF92FF920F931F93CF93DF93EC01F3
:1005900097FF04C0CC27DD27C81BD90B18161906F6
:1005A0000CF061C081E090E090930E0180930D010A
:1005B00004E010E08AE0E82EF12C209709F46FC0E7
:1005C0000E945F028090230190902401A090250159
:1005D000B09026012B013C01481859086A087B0895
:1005E00080900F0190901001A0901101B090120125
:1005F000481459046A047B0400F360932301709348
:1006000024018093250190932601809117019091F8
:10061000180120910D0130910E012130310559F55D
:100620000196909318018093170120911301309146
:1006300014018217930721F41092180110921701E8
:100640002197809117019091180120911501309107
:100650001601B7012530310509F0B8010E94BC052B
:100660000E940C01AACF892B09F4A2CF10920E018F
:1006700010920D019DCF892B41F48091130190912F
:1006800014019093180180931701809117019091A4
:10069000180101979093180180931701D1CFDF9132
:1006A000CF911F910F91FF90EF90BF90AF909F90CF
:1006B0008F907F906F905F904F9008951F920F9250
:1006C0000FB60F9211242F933F938F939F93AF9365
:1006D000BF938091010190910201A0910301B0911B
:1006E00004013091000123E0230F2D3758F50196C6
:1006F000A11DB11D2093000180930101909302017F
:10070000A0930301B093040180910501909106012B
:10071000A0910701B09108010196A11DB11D809320
:10072000050190930601A0930701B0930801BF91C2
:10073000AF919F918F913F912F910F900FBE0F908E
:100740001F90189526E8230F0296A11DB11DD2CF48
:10075000789484B5826084BD84B5816084BD85B59C
:10076000826085BD85B5816085BD80916E008160A8
:1007700080936E001092810080918100826080934E
:100780008100809181008160809381008091800050
:100790008160809380008091B10084608093B1007B
:1007A0008091B00081608093B00080917A00846075
:1007B00080937A0080917A00826080937A008091A1
:1007C0007A00816080937A0080917A0080688093BB
:1007D0007A001092C10062E080E10E941C0262E097
:1007E0008EE00E941C0262E081E10E941C02812CCA
:1007F00087E8982E83E9A82E83E0B82EC0E0D0E0E9
:100800008EE00E944D0223E630E0DC010E94D60516
:100810002FEF33E040E050E00E946C0569017A015F
:100820008FEFC81AD80AE80AF80A80E10E94B500DA
:10083000019709F08EC082E10E94B500892B09F072
:100840000CC183E10E94B500892B09F006C181E14A
:100850000E94B500019709F042C08FE00E944D024E
:1008600024E130E0DC010E94D6052FEF33E040E0C8
:1008700050E00E946C05290130930C0120930B017C
:100880002091130130911401032E000C440B550BE1
:10089000C501B4010E946C05CA01B901A701960106
:1008A0000E946C0520930F013093100140931101B9
:1008B000509312018091090190910A019201281B25
:1008C000390BC9010E94B90250920A0140920901F4
:1008D0000E94840260E080E00E94DE00BEC081E1F0
:1008E0000E94B500892B09F0B8C08FE00E944D022C
:1008F00024E130E0DC010E94D6052FEF33E040E038
:1009000050E00E946C05290130930C0120930B01EB
:100910002091130130911401032E000C440B550B50
:10092000C501B4010E946C05CA01B901A701960175
:100930000E946C0520930F01309310014093110128
:10094000509312018091090190910A01841995092F
:10095000B9CF82E10E94B5000197A1F182E10E9426
:10096000B500892B09F452C082E10E94B5000197BD
:1009700009F06FC083E10E94B500019709F069C0DA
:100980002091130130911401032E000C440B550BE0
:10099000C501B4010E946C05CA01B901A701960105
:1009A0000E946C0520930F013093100140931101B8
:1009B0005093120190E080E00E94B9020E948402EC
:1009C00061E089CF83E10E94B500892B39F620913F
:1009D000130130911401032E000C440B550BC5017B
:1009E000B4010E946C05CA01B901A70196010E94D9
:1009F0006C0520930F013093100140931101509327
:100A0000120181E090E00E94B90262CF83E10E946E
:100A1000B500019709F0A8CF20911301309114017E
:100A2000032E000C440B550BC501B4010E946C054C
:100A3000CA01B901A70196010E946C0520930F011C
:100A40003093100140931101509312018FEF9FEFEB
:100A5000DACF90E080E00E94B902209709F4D0CE6E
:100A60000E940000CDCECF93DF93CDE0D1E01B8676
:100A70001A86198218821E8A1F8A188E198E84E19E
:100A800090E09F838E8388E090E09D878C8789E04B
:100A900090E09F878E878AE090E0998B888B8BE02F
:100AA00090E09B8B8A8B61E088E00E941C0261E0F1
:100AB0008E850E941C0261E088890E941C0261E010
:100AC0008A890E941C021D8A1C8A84E090E0998712
:100AD0008887DF91CF910895052E97FB1EF400942F
:100AE0000E94830557FD07D00E948B0507FC03D0A9
:100AF0004EF40C94830550954095309521953F4FC9
:100B00004F4F5F4F089590958095709561957F4FF9
:100B10008F4F9F4F0895A1E21A2EAA1BBB1BFD0108
:100B20000DC0AA1FBB1FEE1FFF1FA217B307E407CC
:100B3000F50720F0A21BB30BE40BF50B661F771F24
:100B4000881F991F1A9469F7609570958095909504
:100B50009B01AC01BD01CF010895A29FB001B39FDD
:100B6000C001A39F700D811D1124911DB29F700DB6
:100B7000811D1124911D089597FB072E16F40094F2
:100B800007D077FD09D00E94DD0507FC05D03EF4B3
:100B9000909581959F4F0895709561957F4F089529
:100BA000EE0FFF1F0590F491E02D09940E94AD0512
:100BB000B7FF0895821B930B0895AA1BBB1B51E13D
:100BC00007C0AA1FBB1FA617B70710F0A61BB70BBD
:100BD000881F991F5A95A9F780959095BC01CD0162
:060BE0000895F894FFCF18
:00000001FF
